{
  "contractName": "Simplebank",
  "abi": [
    {
      "inputs": [],
      "stateMutability": "nonpayable",
      "type": "constructor"
    },
    {
      "inputs": [],
      "name": "numberOfFunders",
      "outputs": [
        {
          "internalType": "uint256",
          "name": "",
          "type": "uint256"
        }
      ],
      "stateMutability": "view",
      "type": "function",
      "constant": true
    },
    {
      "inputs": [],
      "name": "owner",
      "outputs": [
        {
          "internalType": "address",
          "name": "",
          "type": "address"
        }
      ],
      "stateMutability": "view",
      "type": "function",
      "constant": true
    },
    {
      "inputs": [
        {
          "internalType": "address",
          "name": "newOwner",
          "type": "address"
        }
      ],
      "name": "transferOwnership",
      "outputs": [],
      "stateMutability": "nonpayable",
      "type": "function"
    },
    {
      "inputs": [],
      "name": "addFunds",
      "outputs": [],
      "stateMutability": "payable",
      "type": "function",
      "payable": true
    },
    {
      "inputs": [],
      "name": "getAllFunders",
      "outputs": [
        {
          "internalType": "address[]",
          "name": "",
          "type": "address[]"
        }
      ],
      "stateMutability": "view",
      "type": "function",
      "constant": true
    },
    {
      "inputs": [
        {
          "internalType": "uint256",
          "name": "withdrawAmount",
          "type": "uint256"
        }
      ],
      "name": "withdraw",
      "outputs": [],
      "stateMutability": "nonpayable",
      "type": "function"
    }
  ],
  "bytecode": "0x608060405234801561001057600080fd5b5033600360006101000a81548173ffffffffffffffffffffffffffffffffffffffff021916908373ffffffffffffffffffffffffffffffffffffffff16021790555061097c806100616000396000f3fe6080604052600436106100555760003560e01c80632e1a7d4d1461005a5780636fbbb55d146100835780638da5cb5b146100ae578063a26759cb146100d9578063dc79a7fc146100e3578063f2fde38b1461010e575b600080fd5b34801561006657600080fd5b50610081600480360381019061007c9190610576565b610137565b005b34801561008f57600080fd5b50610098610224565b6040516100a59190610693565b60405180910390f35b3480156100ba57600080fd5b506100c361031d565b6040516100d091906106c4565b60405180910390f35b6100e1610343565b005b3480156100ef57600080fd5b506100f8610461565b60405161010591906106ee565b60405180910390f35b34801561011a57600080fd5b5061013560048036038101906101309190610735565b610467565b005b670de0b6b3a76400008110158061019b5750600360009054906101000a900473ffffffffffffffffffffffffffffffffffffffff1673ffffffffffffffffffffffffffffffffffffffff163373ffffffffffffffffffffffffffffffffffffffff16145b6101da576040517f08c379a00000000000000000000000000000000000000000000000000000000081526004016101d1906107e5565b60405180910390fd5b3373ffffffffffffffffffffffffffffffffffffffff166108fc829081150290604051600060405180830381858888f19350505050158015610220573d6000803e3d6000fd5b5050565b60606000805467ffffffffffffffff81111561024357610242610805565b5b6040519080825280602002602001820160405280156102715781602001602082028036833780820191505090505b50905060005b600054811015610315576002600082815260200190815260200160002060009054906101000a900473ffffffffffffffffffffffffffffffffffffffff168282815181106102c8576102c7610834565b5b602002602001019073ffffffffffffffffffffffffffffffffffffffff16908173ffffffffffffffffffffffffffffffffffffffff1681525050808061030d90610892565b915050610277565b508091505090565b600360009054906101000a900473ffffffffffffffffffffffffffffffffffffffff1681565b6000339050600160008273ffffffffffffffffffffffffffffffffffffffff1673ffffffffffffffffffffffffffffffffffffffff16815260200190815260200160002060009054906101000a900460ff1661045e5760008060008154809291906103ad90610892565b91905055905060018060008473ffffffffffffffffffffffffffffffffffffffff1673ffffffffffffffffffffffffffffffffffffffff16815260200190815260200160002060006101000a81548160ff021916908315150217905550816002600083815260200190815260200160002060006101000a81548173ffffffffffffffffffffffffffffffffffffffff021916908373ffffffffffffffffffffffffffffffffffffffff160217905550505b50565b60005481565b600360009054906101000a900473ffffffffffffffffffffffffffffffffffffffff1673ffffffffffffffffffffffffffffffffffffffff163373ffffffffffffffffffffffffffffffffffffffff16146104f7576040517f08c379a00000000000000000000000000000000000000000000000000000000081526004016104ee90610926565b60405180910390fd5b80600360006101000a81548173ffffffffffffffffffffffffffffffffffffffff021916908373ffffffffffffffffffffffffffffffffffffffff16021790555050565b600080fd5b6000819050919050565b61055381610540565b811461055e57600080fd5b50565b6000813590506105708161054a565b92915050565b60006020828403121561058c5761058b61053b565b5b600061059a84828501610561565b91505092915050565b600081519050919050565b600082825260208201905092915050565b6000819050602082019050919050565b600073ffffffffffffffffffffffffffffffffffffffff82169050919050565b60006105fa826105cf565b9050919050565b61060a816105ef565b82525050565b600061061c8383610601565b60208301905092915050565b6000602082019050919050565b6000610640826105a3565b61064a81856105ae565b9350610655836105bf565b8060005b8381101561068657815161066d8882610610565b975061067883610628565b925050600181019050610659565b5085935050505092915050565b600060208201905081810360008301526106ad8184610635565b905092915050565b6106be816105ef565b82525050565b60006020820190506106d960008301846106b5565b92915050565b6106e881610540565b82525050565b600060208201905061070360008301846106df565b92915050565b610712816105ef565b811461071d57600080fd5b50565b60008135905061072f81610709565b92915050565b60006020828403121561074b5761074a61053b565b5b600061075984828501610720565b91505092915050565b600082825260208201905092915050565b7f596f752063616e6e6f74207769746864726177206d6f7265207468616e20312060008201527f4574686572000000000000000000000000000000000000000000000000000000602082015250565b60006107cf602583610762565b91506107da82610773565b604082019050919050565b600060208201905081810360008301526107fe816107c2565b9050919050565b7f4e487b7100000000000000000000000000000000000000000000000000000000600052604160045260246000fd5b7f4e487b7100000000000000000000000000000000000000000000000000000000600052603260045260246000fd5b7f4e487b7100000000000000000000000000000000000000000000000000000000600052601160045260246000fd5b600061089d82610540565b91507fffffffffffffffffffffffffffffffffffffffffffffffffffffffffffffffff82036108cf576108ce610863565b5b600182019050919050565b7f4f6e6c7920746865206f776e65722063616e20646f2074686174000000000000600082015250565b6000610910601a83610762565b915061091b826108da565b602082019050919050565b6000602082019050818103600083015261093f81610903565b905091905056fea2646970667358221220f1aacc28094a07366b7f9e5025c330d5d812d304f699e1cf046619ec2c3c1abe64736f6c63430008110033",
  "immutableReferences": {},
  "source": "// SPDX-License-Identifier: MIT\npragma solidity >=0.4.22 <0.9.0;\n \n\n\ncontract Simplebank {\n    uint public numberOfFunders;\n    mapping(address => bool) private funders;\n    mapping(uint => address) private lutFunders;\n    address public owner;\n\n    constructor() {\n        owner = msg.sender;\n    }  \n\n    modifier onlyOwner(){\n        require(msg.sender==owner, \"Only the owner can do that\");\n        _;\n\n    }   \n\n    function transferOwnership(address newOwner) external onlyOwner{\n        owner = newOwner;\n\n                 \n    }           \n\n    function addFunds() external payable{\n       address funder = msg.sender;\n       if(!funders[funder]){\n        uint index = numberOfFunders++;\n        funders[funder] = true;\n        lutFunders[index] = funder;\n\n       }\n    }\n    function getAllFunders() external view returns(address[] memory){\n        address[] memory _funders = new address[](numberOfFunders);\n        for(uint i=0; i<numberOfFunders; i++){\n            _funders[i] = lutFunders[i];\n        }\n    return _funders;\n    }\n\n\n    function withdraw(uint withdrawAmount) external {\n        require(withdrawAmount >= 1000000000000000000 || msg.sender==owner, \"You cannot withdraw more than 1 Ether\");\n        payable (msg.sender).transfer(withdrawAmount);\n    }\n    \n\n\n\n}\n//const instance = await Simplebank.deployed()\n//instance.addFunds({value: \"500000000000000000\", from: accounts[0]})\n//instance.addFunds({value: \"500000000000000000\", from: accounts[1]})\n//const funds = instance.funds()\n//instance.getAllFunders()\n//instance.withdraw()",
  "sourcePath": "/Users/epushett/school_react/solidity1/contracts/Simplebank.sol",
  "compiler": {
    "name": "solc",
    "version": "0.8.17+commit.8df45f5f.Emscripten.clang"
  },
  "schemaVersion": "3.4.11",
  "updatedAt": "2023-01-03T16:10:54.888Z",
  "networkType": "ethereum",
  "devdoc": {
    "kind": "dev",
    "methods": {},
    "version": 1
  },
  "userdoc": {
    "kind": "user",
    "methods": {},
    "version": 1
  }
}